{
  "contractName": "Record",
  "abi": [
    {
      "anonymous": false,
      "inputs": [
        {
          "indexed": false,
          "internalType": "string",
          "name": "recipientEmail",
          "type": "string"
        },
        {
          "indexed": false,
          "internalType": "string",
          "name": "ipfsHash",
          "type": "string"
        },
        {
          "indexed": false,
          "internalType": "string",
          "name": "ipfsHashSignedWithPrivateKey",
          "type": "string"
        },
        {
          "indexed": false,
          "internalType": "string",
          "name": "orgEmail",
          "type": "string"
        }
      ],
      "name": "documentIssued",
      "type": "event"
    },
    {
      "inputs": [
        {
          "internalType": "string",
          "name": "",
          "type": "string"
        }
      ],
      "name": "documents",
      "outputs": [
        {
          "internalType": "string",
          "name": "recipientEmail",
          "type": "string"
        },
        {
          "internalType": "string",
          "name": "ipfsHash",
          "type": "string"
        },
        {
          "internalType": "string",
          "name": "ipfsHashSignedWithPrivateKey",
          "type": "string"
        },
        {
          "internalType": "string",
          "name": "orgEmail",
          "type": "string"
        }
      ],
      "stateMutability": "view",
      "type": "function",
      "constant": true
    },
    {
      "inputs": [
        {
          "internalType": "uint256",
          "name": "",
          "type": "uint256"
        }
      ],
      "name": "emailAndDocumentHashs",
      "outputs": [
        {
          "internalType": "string",
          "name": "email",
          "type": "string"
        },
        {
          "internalType": "string",
          "name": "documentHash",
          "type": "string"
        }
      ],
      "stateMutability": "view",
      "type": "function",
      "constant": true
    },
    {
      "inputs": [
        {
          "internalType": "uint256",
          "name": "",
          "type": "uint256"
        }
      ],
      "name": "emailAndPublicKeys",
      "outputs": [
        {
          "internalType": "string",
          "name": "email",
          "type": "string"
        },
        {
          "internalType": "string",
          "name": "publicKey",
          "type": "string"
        }
      ],
      "stateMutability": "view",
      "type": "function",
      "constant": true
    },
    {
      "inputs": [
        {
          "internalType": "string",
          "name": "documentId",
          "type": "string"
        },
        {
          "internalType": "string",
          "name": "recipientEmail",
          "type": "string"
        },
        {
          "internalType": "string",
          "name": "ipfsHash",
          "type": "string"
        },
        {
          "internalType": "string",
          "name": "ipfsHashSignedWithPrivateKey",
          "type": "string"
        },
        {
          "internalType": "string",
          "name": "orgEmail",
          "type": "string"
        }
      ],
      "name": "issueDocument",
      "outputs": [],
      "stateMutability": "nonpayable",
      "type": "function"
    },
    {
      "inputs": [
        {
          "internalType": "string",
          "name": "email",
          "type": "string"
        }
      ],
      "name": "getDocument",
      "outputs": [
        {
          "internalType": "string[]",
          "name": "",
          "type": "string[]"
        }
      ],
      "stateMutability": "view",
      "type": "function",
      "constant": true
    },
    {
      "inputs": [
        {
          "internalType": "string",
          "name": "documentId",
          "type": "string"
        }
      ],
      "name": "revokeDocument",
      "outputs": [],
      "stateMutability": "nonpayable",
      "type": "function"
    },
    {
      "inputs": [
        {
          "internalType": "string",
          "name": "email",
          "type": "string"
        },
        {
          "internalType": "string",
          "name": "publicKey",
          "type": "string"
        }
      ],
      "name": "storeEmailAndDocumentHash",
      "outputs": [],
      "stateMutability": "nonpayable",
      "type": "function"
    },
    {
      "inputs": [
        {
          "internalType": "string",
          "name": "email",
          "type": "string"
        }
      ],
      "name": "getPublicKey",
      "outputs": [
        {
          "internalType": "string",
          "name": "",
          "type": "string"
        }
      ],
      "stateMutability": "view",
      "type": "function",
      "constant": true
    }
  ],
  "bytecode": "0x608060405234801561001057600080fd5b506117e4806100206000396000f3fe608060405234801561001057600080fd5b50600436106100885760003560e01c8063b3dd697b1161005b578063b3dd697b1461013b578063bff908211461016e578063ea1c4b481461019e578063f9a00ba4146101ba57610088565b8063029ba59b1461008d5780637ccb6a64146100a95780637e022404146100d95780639a0eacfc1461010a575b600080fd5b6100a760048036038101906100a29190611035565b6101d6565b005b6100c360048036038101906100be9190611035565b6102ad565b6040516100d091906111c8565b60405180910390f35b6100f360048036038101906100ee9190611220565b610530565b604051610101929190611297565b60405180910390f35b610124600480360381019061011f9190611220565b610674565b604051610132929190611297565b60405180910390f35b61015560048036038101906101509190611035565b6107b8565b60405161016594939291906112ce565b60405180910390f35b61018860048036038101906101839190611035565b610a1e565b604051610195919061132f565b60405180910390f35b6101b860048036038101906101b39190611351565b610b8a565b005b6101d460048036038101906101cf91906113c9565b610c0a565b005b8060006002826040516101e9919061150c565b9081526020016040518091039020600101805461020590611552565b90501415610248576040517f08c379a000000000000000000000000000000000000000000000000000000000815260040161023f906115d0565b60405180910390fd5b600282604051610258919061150c565b9081526020016040518091039020600080820160006102779190610df8565b6001820160006102879190610df8565b6002820160006102979190610df8565b6003820160006102a79190610df8565b50505050565b60606000805b60018054905081101561035a57836040516020016102d1919061150c565b60405160208183030381529060405280519060200120600182815481106102fb576102fa6115f0565b5b906000526020600020906002020160000160405160200161031c91906116b3565b604051602081830303815290604052805190602001201415610347578180610343906116f9565b9250505b8080610352906116f9565b9150506102b3565b5060008167ffffffffffffffff81111561037757610376610f0a565b5b6040519080825280602002602001820160405280156103aa57816020015b60608152602001906001900390816103955790505b5090506000805b60018054905081101561052457856040516020016103cf919061150c565b60405160208183030381529060405280519060200120600182815481106103f9576103f86115f0565b5b906000526020600020906002020160000160405160200161041a91906116b3565b604051602081830303815290604052805190602001201415610511576001818154811061044a576104496115f0565b5b9060005260206000209060020201600101805461046690611552565b80601f016020809104026020016040519081016040528092919081815260200182805461049290611552565b80156104df5780601f106104b4576101008083540402835291602001916104df565b820191906000526020600020905b8154815290600101906020018083116104c257829003601f168201915b50505050508383815181106104f7576104f66115f0565b5b6020026020010181905250818061050d906116f9565b9250505b808061051c906116f9565b9150506103b1565b50819350505050919050565b6000818154811061054057600080fd5b906000526020600020906002020160009150905080600001805461056390611552565b80601f016020809104026020016040519081016040528092919081815260200182805461058f90611552565b80156105dc5780601f106105b1576101008083540402835291602001916105dc565b820191906000526020600020905b8154815290600101906020018083116105bf57829003601f168201915b5050505050908060010180546105f190611552565b80601f016020809104026020016040519081016040528092919081815260200182805461061d90611552565b801561066a5780601f1061063f5761010080835404028352916020019161066a565b820191906000526020600020905b81548152906001019060200180831161064d57829003601f168201915b5050505050905082565b6001818154811061068457600080fd5b90600052602060002090600202016000915090508060000180546106a790611552565b80601f01602080910402602001604051908101604052809291908181526020018280546106d390611552565b80156107205780601f106106f557610100808354040283529160200191610720565b820191906000526020600020905b81548152906001019060200180831161070357829003601f168201915b50505050509080600101805461073590611552565b80601f016020809104026020016040519081016040528092919081815260200182805461076190611552565b80156107ae5780601f10610783576101008083540402835291602001916107ae565b820191906000526020600020905b81548152906001019060200180831161079157829003601f168201915b5050505050905082565b6002818051602081018201805184825260208301602085012081835280955050505050506000915090508060000180546107f190611552565b80601f016020809104026020016040519081016040528092919081815260200182805461081d90611552565b801561086a5780601f1061083f5761010080835404028352916020019161086a565b820191906000526020600020905b81548152906001019060200180831161084d57829003601f168201915b50505050509080600101805461087f90611552565b80601f01602080910402602001604051908101604052809291908181526020018280546108ab90611552565b80156108f85780601f106108cd576101008083540402835291602001916108f8565b820191906000526020600020905b8154815290600101906020018083116108db57829003601f168201915b50505050509080600201805461090d90611552565b80601f016020809104026020016040519081016040528092919081815260200182805461093990611552565b80156109865780601f1061095b57610100808354040283529160200191610986565b820191906000526020600020905b81548152906001019060200180831161096957829003601f168201915b50505050509080600301805461099b90611552565b80601f01602080910402602001604051908101604052809291908181526020018280546109c790611552565b8015610a145780601f106109e957610100808354040283529160200191610a14565b820191906000526020600020905b8154815290600101906020018083116109f757829003601f168201915b5050505050905084565b606060005b600080549050811015610b715782604051602001610a41919061150c565b6040516020818303038152906040528051906020012060008281548110610a6b57610a6a6115f0565b5b9060005260206000209060020201600001604051602001610a8c91906116b3565b604051602081830303815290604052805190602001201415610b5e5760008181548110610abc57610abb6115f0565b5b90600052602060002090600202016001018054610ad890611552565b80601f0160208091040260200160405190810160405280929190818152602001828054610b0490611552565b8015610b515780601f10610b2657610100808354040283529160200191610b51565b820191906000526020600020905b815481529060010190602001808311610b3457829003601f168201915b5050505050915050610b85565b8080610b69906116f9565b915050610a23565b506040518060200160405280600081525090505b919050565b600060405180604001604052808481526020018381525090806001815401808255809150506001900390600052602060002090600202016000909190919091506000820151816000019080519060200190610be6929190610e38565b506020820151816001019080519060200190610c03929190610e38565b5050505050565b826000600282604051610c1d919061150c565b90815260200160405180910390206001018054610c3990611552565b905014610c7b576040517f08c379a0000000000000000000000000000000000000000000000000000000008152600401610c729061178e565b60405180910390fd5b6000604051806080016040528087815260200186815260200185815260200184815250905080600288604051610cb1919061150c565b90815260200160405180910390206000820151816000019080519060200190610cdb929190610e38565b506020820151816001019080519060200190610cf8929190610e38565b506040820151816002019080519060200190610d15929190610e38565b506060820151816003019080519060200190610d32929190610e38565b50905050600160405180604001604052808881526020018781525090806001815401808255809150506001900390600052602060002090600202016000909190919091506000820151816000019080519060200190610d92929190610e38565b506020820151816001019080519060200190610daf929190610e38565b5050507f7c94488ae93a52b0e58ad7ea0b1d6600af1936dc546ea02a995546030faf7f9986868686604051610de794939291906112ce565b60405180910390a150505050505050565b508054610e0490611552565b6000825580601f10610e165750610e35565b601f016020900490600052602060002090810190610e349190610ebe565b5b50565b828054610e4490611552565b90600052602060002090601f016020900481019282610e665760008555610ead565b82601f10610e7f57805160ff1916838001178555610ead565b82800160010185558215610ead579182015b82811115610eac578251825591602001919060010190610e91565b5b509050610eba9190610ebe565b5090565b5b80821115610ed7576000816000905550600101610ebf565b5090565b6000604051905090565b600080fd5b600080fd5b600080fd5b600080fd5b6000601f19601f8301169050919050565b7f4e487b7100000000000000000000000000000000000000000000000000000000600052604160045260246000fd5b610f4282610ef9565b810181811067ffffffffffffffff82111715610f6157610f60610f0a565b5b80604052505050565b6000610f74610edb565b9050610f808282610f39565b919050565b600067ffffffffffffffff821115610fa057610f9f610f0a565b5b610fa982610ef9565b9050602081019050919050565b82818337600083830152505050565b6000610fd8610fd384610f85565b610f6a565b905082815260208101848484011115610ff457610ff3610ef4565b5b610fff848285610fb6565b509392505050565b600082601f83011261101c5761101b610eef565b5b813561102c848260208601610fc5565b91505092915050565b60006020828403121561104b5761104a610ee5565b5b600082013567ffffffffffffffff81111561106957611068610eea565b5b61107584828501611007565b91505092915050565b600081519050919050565b600082825260208201905092915050565b6000819050602082019050919050565b600081519050919050565b600082825260208201905092915050565b60005b838110156110e45780820151818401526020810190506110c9565b838111156110f3576000848401525b50505050565b6000611104826110aa565b61110e81856110b5565b935061111e8185602086016110c6565b61112781610ef9565b840191505092915050565b600061113e83836110f9565b905092915050565b6000602082019050919050565b600061115e8261107e565b6111688185611089565b93508360208202850161117a8561109a565b8060005b858110156111b657848403895281516111978582611132565b94506111a283611146565b925060208a0199505060018101905061117e565b50829750879550505050505092915050565b600060208201905081810360008301526111e28184611153565b905092915050565b6000819050919050565b6111fd816111ea565b811461120857600080fd5b50565b60008135905061121a816111f4565b92915050565b60006020828403121561123657611235610ee5565b5b60006112448482850161120b565b91505092915050565b600082825260208201905092915050565b6000611269826110aa565b611273818561124d565b93506112838185602086016110c6565b61128c81610ef9565b840191505092915050565b600060408201905081810360008301526112b1818561125e565b905081810360208301526112c5818461125e565b90509392505050565b600060808201905081810360008301526112e8818761125e565b905081810360208301526112fc818661125e565b90508181036040830152611310818561125e565b90508181036060830152611324818461125e565b905095945050505050565b60006020820190508181036000830152611349818461125e565b905092915050565b6000806040838503121561136857611367610ee5565b5b600083013567ffffffffffffffff81111561138657611385610eea565b5b61139285828601611007565b925050602083013567ffffffffffffffff8111156113b3576113b2610eea565b5b6113bf85828601611007565b9150509250929050565b600080600080600060a086880312156113e5576113e4610ee5565b5b600086013567ffffffffffffffff81111561140357611402610eea565b5b61140f88828901611007565b955050602086013567ffffffffffffffff8111156114305761142f610eea565b5b61143c88828901611007565b945050604086013567ffffffffffffffff81111561145d5761145c610eea565b5b61146988828901611007565b935050606086013567ffffffffffffffff81111561148a57611489610eea565b5b61149688828901611007565b925050608086013567ffffffffffffffff8111156114b7576114b6610eea565b5b6114c388828901611007565b9150509295509295909350565b600081905092915050565b60006114e6826110aa565b6114f081856114d0565b93506115008185602086016110c6565b80840191505092915050565b600061151882846114db565b915081905092915050565b7f4e487b7100000000000000000000000000000000000000000000000000000000600052602260045260246000fd5b6000600282049050600182168061156a57607f821691505b6020821081141561157e5761157d611523565b5b50919050565b7f5468697320646f63756d656e7420646f6573206e6f7420657869737400000000600082015250565b60006115ba601c8361124d565b91506115c582611584565b602082019050919050565b600060208201905081810360008301526115e9816115ad565b9050919050565b7f4e487b7100000000000000000000000000000000000000000000000000000000600052603260045260246000fd5b60008190508160005260206000209050919050565b6000815461164181611552565b61164b81866114d0565b945060018216600081146116665760018114611677576116aa565b60ff198316865281860193506116aa565b6116808561161f565b60005b838110156116a257815481890152600182019150602081019050611683565b838801955050505b50505092915050565b60006116bf8284611634565b915081905092915050565b7f4e487b7100000000000000000000000000000000000000000000000000000000600052601160045260246000fd5b6000611704826111ea565b91507fffffffffffffffffffffffffffffffffffffffffffffffffffffffffffffffff821415611737576117366116ca565b5b600182019050919050565b7f5468697320646f63756d656e74206973206e6f74206f726967696e616c000000600082015250565b6000611778601d8361124d565b915061178382611742565b602082019050919050565b600060208201905081810360008301526117a78161176b565b905091905056fea26469706673582212201b99dc9eecf1e4e205e8442cad6b31970a5bd3c1dc0f6f74f874c37de7da999d64736f6c63430008090033",
  "immutableReferences": {},
  "source": "// SPDX-License-Identifier: UNLICENSED\npragma solidity ^0.8.9;\n\n/// @title A contract to issue/get/revoke documents to anyone\n/// @author g-s01\n/// @notice A contract to issue/get/revoke documents to anyone\n/// @dev Verification of the document is not implemented, and will be done somewhere else\ncontract Record{\n    // A document can be uniquely identified by the recipient's email,\n    // the hash of the document on IPFS\n    // and the email of the organization that issued the document\n    struct Document{\n        string recipientEmail;\n        string ipfsHash;\n        string ipfsHashSignedWithPrivateKey;\n        string orgEmail;\n    }\n    struct emailAndDocumentHash{\n        string email;\n        string documentHash;\n    }\n    struct emailAndPublicKey{\n        string email;\n        string publicKey;\n    }\n    emailAndPublicKey[] public emailAndPublicKeys;\n    emailAndDocumentHash[] public emailAndDocumentHashs;\n    // A mapping from the document ID to the document\n    mapping(string => Document) public documents;\n    // An event that is emitted when a document is issued\n    event documentIssued(string recipientEmail, string ipfsHash, string ipfsHashSignedWithPrivateKey, string orgEmail);\n    // Modifier to check whether the certificate is original or not\n    modifier isOriginal(string memory documentId){\n        require(\n            bytes(documents[documentId].ipfsHash).length == 0,\n            \"This document is not original\"\n        );\n        _;\n    }\n    // Modifier to check whether the certificate exists or not\n    modifier isExist(string memory documentId){\n        require(\n            bytes(documents[documentId].ipfsHash).length != 0,\n            \"This document does not exist\"\n        );\n        _;\n    }\n    // A function to issue a document\n    function issueDocument(\n        string memory documentId,\n        string memory recipientEmail,\n        string memory ipfsHash,\n        string memory ipfsHashSignedWithPrivateKey,\n        string memory orgEmail\n    ) public isOriginal (ipfsHash){\n        Document memory newDocument = Document(\n            recipientEmail,\n            ipfsHash,\n            ipfsHashSignedWithPrivateKey,\n            orgEmail\n        );\n        documents[documentId] = newDocument;\n        emailAndDocumentHashs.push(emailAndDocumentHash(recipientEmail, ipfsHash));\n        emit documentIssued(recipientEmail, ipfsHash, ipfsHashSignedWithPrivateKey, orgEmail);\n    }\n    // A function to get certificates for a particular email\n    function getDocument(string memory email)\n        public\n        view\n        returns (string[] memory)\n    {\n        uint256 count = 0;\n        for (uint256 i = 0; i < emailAndDocumentHashs.length; i++) {\n            if (keccak256(abi.encodePacked(emailAndDocumentHashs[i].email)) == keccak256(abi.encodePacked(email))) {\n                count++;\n            }\n        }\n        string[] memory documentIds = new string[](count);\n        uint256 j = 0;\n        for (uint256 i = 0; i < emailAndDocumentHashs.length; i++) {\n            if (keccak256(abi.encodePacked(emailAndDocumentHashs[i].email)) == keccak256(abi.encodePacked(email))) {\n                documentIds[j] = emailAndDocumentHashs[i].documentHash;\n                j++;\n            }\n        }\n        return documentIds;\n    }\n    // A function to revoke a document\n    function revokeDocument(string memory documentId) public isExist(documentId){\n        delete documents[documentId];\n    }\n    // A function to store email and public key\n    function storeEmailAndDocumentHash(string memory email, string memory publicKey) public {\n        emailAndPublicKeys.push(emailAndPublicKey(email, publicKey));\n    }\n    // A function to retrieve public key from email\n    function getPublicKey(string memory email) public view returns (string memory){\n        for (uint256 i = 0; i < emailAndPublicKeys.length; i++) {\n            if (keccak256(abi.encodePacked(emailAndPublicKeys[i].email)) == keccak256(abi.encodePacked(email))) {\n                return emailAndPublicKeys[i].publicKey;\n            }\n        }\n        return \"\";\n    }\n}",
  "sourcePath": "/Users/gautamsharma/Desktop/kritiWeb3/contracts/document.sol",
  "compiler": {
    "name": "solc",
    "version": "0.8.9+commit.e5eed63a.Emscripten.clang"
  },
  "schemaVersion": "3.4.16",
  "updatedAt": "2024-02-06T01:03:39.219Z",
  "networkType": "ethereum",
  "devdoc": {
    "author": "g-s01",
    "details": "Verification of the document is not implemented, and will be done somewhere else",
    "kind": "dev",
    "methods": {},
    "title": "A contract to issue/get/revoke documents to anyone",
    "version": 1
  },
  "userdoc": {
    "kind": "user",
    "methods": {},
    "notice": "A contract to issue/get/revoke documents to anyone",
    "version": 1
  }
}