{
  "contractName": "Record",
  "abi": [
    {
      "anonymous": false,
      "inputs": [
        {
          "indexed": false,
          "internalType": "string",
          "name": "recipientEmail",
          "type": "string"
        },
        {
          "indexed": false,
          "internalType": "bytes",
          "name": "ipfsHashSigned",
          "type": "bytes"
        },
        {
          "indexed": false,
          "internalType": "string",
          "name": "orgEmail",
          "type": "string"
        }
      ],
      "name": "documentIssued",
      "type": "event"
    },
    {
      "inputs": [
        {
          "internalType": "string",
          "name": "",
          "type": "string"
        }
      ],
      "name": "documents",
      "outputs": [
        {
          "internalType": "string",
          "name": "documentName",
          "type": "string"
        },
        {
          "internalType": "string",
          "name": "recipientEmail",
          "type": "string"
        },
        {
          "internalType": "bytes",
          "name": "ipfsHashSigned",
          "type": "bytes"
        },
        {
          "internalType": "string",
          "name": "orgEmail",
          "type": "string"
        }
      ],
      "stateMutability": "view",
      "type": "function",
      "constant": true
    },
    {
      "inputs": [
        {
          "internalType": "uint256",
          "name": "",
          "type": "uint256"
        }
      ],
      "name": "recipientEmailAndDocumentNameAndDocumentHashAndOrgEmails",
      "outputs": [
        {
          "internalType": "string",
          "name": "recipientEmail",
          "type": "string"
        },
        {
          "internalType": "string",
          "name": "documentName",
          "type": "string"
        },
        {
          "internalType": "bytes",
          "name": "documentHash",
          "type": "bytes"
        },
        {
          "internalType": "string",
          "name": "orgEmail",
          "type": "string"
        }
      ],
      "stateMutability": "view",
      "type": "function",
      "constant": true
    },
    {
      "inputs": [
        {
          "internalType": "uint256",
          "name": "",
          "type": "uint256"
        }
      ],
      "name": "recipientEmailAndPublicKeys",
      "outputs": [
        {
          "internalType": "string",
          "name": "recipientEmail",
          "type": "string"
        },
        {
          "internalType": "bytes",
          "name": "publicKey",
          "type": "bytes"
        }
      ],
      "stateMutability": "view",
      "type": "function",
      "constant": true
    },
    {
      "inputs": [
        {
          "internalType": "string",
          "name": "documentId",
          "type": "string"
        },
        {
          "internalType": "string",
          "name": "documentName",
          "type": "string"
        },
        {
          "internalType": "string",
          "name": "recipientEmail",
          "type": "string"
        },
        {
          "internalType": "bytes",
          "name": "ipfsHashSigned",
          "type": "bytes"
        },
        {
          "internalType": "string",
          "name": "orgEmail",
          "type": "string"
        }
      ],
      "name": "issueDocument",
      "outputs": [],
      "stateMutability": "nonpayable",
      "type": "function"
    },
    {
      "inputs": [
        {
          "internalType": "string",
          "name": "email",
          "type": "string"
        }
      ],
      "name": "getDocument",
      "outputs": [
        {
          "components": [
            {
              "internalType": "bytes",
              "name": "documentHash",
              "type": "bytes"
            },
            {
              "internalType": "string",
              "name": "documentName",
              "type": "string"
            },
            {
              "internalType": "string",
              "name": "orgEmail",
              "type": "string"
            }
          ],
          "internalType": "struct Record.DocumentHashAndDocumentNameAndOrgEmail[]",
          "name": "",
          "type": "tuple[]"
        }
      ],
      "stateMutability": "view",
      "type": "function",
      "constant": true
    },
    {
      "inputs": [
        {
          "internalType": "string",
          "name": "documentId",
          "type": "string"
        }
      ],
      "name": "revokeDocument",
      "outputs": [],
      "stateMutability": "nonpayable",
      "type": "function"
    },
    {
      "inputs": [
        {
          "internalType": "string",
          "name": "email",
          "type": "string"
        },
        {
          "internalType": "bytes",
          "name": "publicKey",
          "type": "bytes"
        }
      ],
      "name": "storeEmailAndPublicKey",
      "outputs": [],
      "stateMutability": "nonpayable",
      "type": "function"
    },
    {
      "inputs": [
        {
          "internalType": "string",
          "name": "email",
          "type": "string"
        }
      ],
      "name": "getPublicKey",
      "outputs": [
        {
          "internalType": "bytes",
          "name": "",
          "type": "bytes"
        }
      ],
      "stateMutability": "view",
      "type": "function",
      "constant": true
    },
    {
      "inputs": [
        {
          "internalType": "string",
          "name": "documentId",
          "type": "string"
        }
      ],
      "name": "isDocumentExist",
      "outputs": [
        {
          "internalType": "bool",
          "name": "",
          "type": "bool"
        }
      ],
      "stateMutability": "view",
      "type": "function",
      "constant": true
    }
  ],
  "bytecode": "0x608060405234801561001057600080fd5b50611e35806100206000396000f3fe608060405234801561001057600080fd5b50600436106100935760003560e01c80637ccb6a64116100665780637ccb6a641461011f578063805c1a711461014f578063b3dd697b1461017f578063bff90821146101b2578063c661f6c4146101e257610093565b8063029ba59b1461009857806322b09bda146100b457806352b2c775146100d057806365773179146100ec575b600080fd5b6100b260048036038101906100ad9190611466565b610213565b005b6100ce60048036038101906100c99190611550565b6102ce565b005b6100ea60048036038101906100e59190611657565b610500565b005b61010660048036038101906101019190611705565b610580565b604051610116949392919061180f565b60405180910390f35b61013960048036038101906101349190611466565b6107e0565b6040516101469190611a24565b60405180910390f35b61016960048036038101906101649190611466565b610bdd565b6040516101769190611a61565b60405180910390f35b61019960048036038101906101949190611466565b610c26565b6040516101a9949392919061180f565b60405180910390f35b6101cc60048036038101906101c79190611466565b610e8c565b6040516101d99190611a7c565b60405180910390f35b6101fc60048036038101906101f79190611705565b610ff8565b60405161020a929190611a9e565b60405180910390f35b8060006002826040516102269190611b11565b9081526020016040518091039020600201805461024290611b57565b90501415610285576040517f08c379a000000000000000000000000000000000000000000000000000000000815260040161027c90611bd5565b60405180910390fd5b604051806020016040528060008152506002836040516102a59190611b11565b908152602001604051809103902060020190805190602001906102c992919061113c565b505050565b8460006002826040516102e19190611b11565b908152602001604051809103902060020180546102fd90611b57565b90501461033f576040517f08c379a000000000000000000000000000000000000000000000000000000000815260040161033690611c41565b60405180910390fd5b60006040518060800160405280878152602001868152602001858152602001848152509050806002886040516103759190611b11565b9081526020016040518091039020600082015181600001908051906020019061039f9291906111c2565b5060208201518160010190805190602001906103bc9291906111c2565b5060408201518160020190805190602001906103d9929190611248565b5060608201518160030190805190602001906103f69291906111c2565b509050506001604051806080016040528087815260200188815260200186815260200185815250908060018154018082558091505060019003906000526020600020906004020160009091909190915060008201518160000190805190602001906104629291906111c2565b50602082015181600101908051906020019061047f9291906111c2565b50604082015181600201908051906020019061049c929190611248565b5060608201518160030190805190602001906104b99291906111c2565b5050507ff2edea14b6c400b15334891e90952a1b02d6e8ac6ed9139bfb5222d03508090e8585856040516104ef93929190611c61565b60405180910390a150505050505050565b60006040518060400160405280848152602001838152509080600181540180825580915050600190039060005260206000209060020201600090919091909150600082015181600001908051906020019061055c9291906111c2565b506020820151816001019080519060200190610579929190611248565b5050505050565b6001818154811061059057600080fd5b90600052602060002090600402016000915090508060000180546105b390611b57565b80601f01602080910402602001604051908101604052809291908181526020018280546105df90611b57565b801561062c5780601f106106015761010080835404028352916020019161062c565b820191906000526020600020905b81548152906001019060200180831161060f57829003601f168201915b50505050509080600101805461064190611b57565b80601f016020809104026020016040519081016040528092919081815260200182805461066d90611b57565b80156106ba5780601f1061068f576101008083540402835291602001916106ba565b820191906000526020600020905b81548152906001019060200180831161069d57829003601f168201915b5050505050908060020180546106cf90611b57565b80601f01602080910402602001604051908101604052809291908181526020018280546106fb90611b57565b80156107485780601f1061071d57610100808354040283529160200191610748565b820191906000526020600020905b81548152906001019060200180831161072b57829003601f168201915b50505050509080600301805461075d90611b57565b80601f016020809104026020016040519081016040528092919081815260200182805461078990611b57565b80156107d65780601f106107ab576101008083540402835291602001916107d6565b820191906000526020600020905b8154815290600101906020018083116107b957829003601f168201915b5050505050905084565b60606000805b60018054905081101561088d57836040516020016108049190611b11565b604051602081830303815290604052805190602001206001828154811061082e5761082d611cad565b5b906000526020600020906004020160000160405160200161084f9190611d70565b60405160208183030381529060405280519060200120141561087a57818061087690611db6565b9250505b808061088590611db6565b9150506107e6565b5060008167ffffffffffffffff8111156108aa576108a961133b565b5b6040519080825280602002602001820160405280156108e357816020015b6108d06112ce565b8152602001906001900390816108c85790505b5090506000805b600180549050811015610bd157856040516020016109089190611b11565b604051602081830303815290604052805190602001206001828154811061093257610931611cad565b5b90600052602060002090600402016000016040516020016109539190611d70565b604051602081830303815290604052805190602001201415610bbe5760405180606001604052806001838154811061098e5761098d611cad565b5b906000526020600020906004020160020180546109aa90611b57565b80601f01602080910402602001604051908101604052809291908181526020018280546109d690611b57565b8015610a235780601f106109f857610100808354040283529160200191610a23565b820191906000526020600020905b815481529060010190602001808311610a0657829003601f168201915b5050505050815260200160018381548110610a4157610a40611cad565b5b90600052602060002090600402016001018054610a5d90611b57565b80601f0160208091040260200160405190810160405280929190818152602001828054610a8990611b57565b8015610ad65780601f10610aab57610100808354040283529160200191610ad6565b820191906000526020600020905b815481529060010190602001808311610ab957829003601f168201915b5050505050815260200160018381548110610af457610af3611cad565b5b90600052602060002090600402016003018054610b1090611b57565b80601f0160208091040260200160405190810160405280929190818152602001828054610b3c90611b57565b8015610b895780601f10610b5e57610100808354040283529160200191610b89565b820191906000526020600020905b815481529060010190602001808311610b6c57829003601f168201915b5050505050815250838381518110610ba457610ba3611cad565b5b60200260200101819052508180610bba90611db6565b9250505b8080610bc990611db6565b9150506108ea565b50819350505050919050565b600080600283604051610bf09190611b11565b90815260200160405180910390206002018054610c0c90611b57565b905014610c1c5760019050610c21565b600090505b919050565b600281805160208101820180518482526020830160208501208183528095505050505050600091509050806000018054610c5f90611b57565b80601f0160208091040260200160405190810160405280929190818152602001828054610c8b90611b57565b8015610cd85780601f10610cad57610100808354040283529160200191610cd8565b820191906000526020600020905b815481529060010190602001808311610cbb57829003601f168201915b505050505090806001018054610ced90611b57565b80601f0160208091040260200160405190810160405280929190818152602001828054610d1990611b57565b8015610d665780601f10610d3b57610100808354040283529160200191610d66565b820191906000526020600020905b815481529060010190602001808311610d4957829003601f168201915b505050505090806002018054610d7b90611b57565b80601f0160208091040260200160405190810160405280929190818152602001828054610da790611b57565b8015610df45780601f10610dc957610100808354040283529160200191610df4565b820191906000526020600020905b815481529060010190602001808311610dd757829003601f168201915b505050505090806003018054610e0990611b57565b80601f0160208091040260200160405190810160405280929190818152602001828054610e3590611b57565b8015610e825780601f10610e5757610100808354040283529160200191610e82565b820191906000526020600020905b815481529060010190602001808311610e6557829003601f168201915b5050505050905084565b606060005b600080549050811015610fdf5782604051602001610eaf9190611b11565b6040516020818303038152906040528051906020012060008281548110610ed957610ed8611cad565b5b9060005260206000209060020201600001604051602001610efa9190611d70565b604051602081830303815290604052805190602001201415610fcc5760008181548110610f2a57610f29611cad565b5b90600052602060002090600202016001018054610f4690611b57565b80601f0160208091040260200160405190810160405280929190818152602001828054610f7290611b57565b8015610fbf5780601f10610f9457610100808354040283529160200191610fbf565b820191906000526020600020905b815481529060010190602001808311610fa257829003601f168201915b5050505050915050610ff3565b8080610fd790611db6565b915050610e91565b506040518060200160405280600081525090505b919050565b6000818154811061100857600080fd5b906000526020600020906002020160009150905080600001805461102b90611b57565b80601f016020809104026020016040519081016040528092919081815260200182805461105790611b57565b80156110a45780601f10611079576101008083540402835291602001916110a4565b820191906000526020600020905b81548152906001019060200180831161108757829003601f168201915b5050505050908060010180546110b990611b57565b80601f01602080910402602001604051908101604052809291908181526020018280546110e590611b57565b80156111325780601f1061110757610100808354040283529160200191611132565b820191906000526020600020905b81548152906001019060200180831161111557829003601f168201915b5050505050905082565b82805461114890611b57565b90600052602060002090601f01602090048101928261116a57600085556111b1565b82601f1061118357805160ff19168380011785556111b1565b828001600101855582156111b1579182015b828111156111b0578251825591602001919060010190611195565b5b5090506111be91906112ef565b5090565b8280546111ce90611b57565b90600052602060002090601f0160209004810192826111f05760008555611237565b82601f1061120957805160ff1916838001178555611237565b82800160010185558215611237579182015b8281111561123657825182559160200191906001019061121b565b5b50905061124491906112ef565b5090565b82805461125490611b57565b90600052602060002090601f01602090048101928261127657600085556112bd565b82601f1061128f57805160ff19168380011785556112bd565b828001600101855582156112bd579182015b828111156112bc5782518255916020019190600101906112a1565b5b5090506112ca91906112ef565b5090565b60405180606001604052806060815260200160608152602001606081525090565b5b808211156113085760008160009055506001016112f0565b5090565b6000604051905090565b600080fd5b600080fd5b600080fd5b600080fd5b6000601f19601f8301169050919050565b7f4e487b7100000000000000000000000000000000000000000000000000000000600052604160045260246000fd5b6113738261132a565b810181811067ffffffffffffffff821117156113925761139161133b565b5b80604052505050565b60006113a561130c565b90506113b1828261136a565b919050565b600067ffffffffffffffff8211156113d1576113d061133b565b5b6113da8261132a565b9050602081019050919050565b82818337600083830152505050565b6000611409611404846113b6565b61139b565b90508281526020810184848401111561142557611424611325565b5b6114308482856113e7565b509392505050565b600082601f83011261144d5761144c611320565b5b813561145d8482602086016113f6565b91505092915050565b60006020828403121561147c5761147b611316565b5b600082013567ffffffffffffffff81111561149a5761149961131b565b5b6114a684828501611438565b91505092915050565b600067ffffffffffffffff8211156114ca576114c961133b565b5b6114d38261132a565b9050602081019050919050565b60006114f36114ee846114af565b61139b565b90508281526020810184848401111561150f5761150e611325565b5b61151a8482856113e7565b509392505050565b600082601f83011261153757611536611320565b5b81356115478482602086016114e0565b91505092915050565b600080600080600060a0868803121561156c5761156b611316565b5b600086013567ffffffffffffffff81111561158a5761158961131b565b5b61159688828901611438565b955050602086013567ffffffffffffffff8111156115b7576115b661131b565b5b6115c388828901611438565b945050604086013567ffffffffffffffff8111156115e4576115e361131b565b5b6115f088828901611438565b935050606086013567ffffffffffffffff8111156116115761161061131b565b5b61161d88828901611522565b925050608086013567ffffffffffffffff81111561163e5761163d61131b565b5b61164a88828901611438565b9150509295509295909350565b6000806040838503121561166e5761166d611316565b5b600083013567ffffffffffffffff81111561168c5761168b61131b565b5b61169885828601611438565b925050602083013567ffffffffffffffff8111156116b9576116b861131b565b5b6116c585828601611522565b9150509250929050565b6000819050919050565b6116e2816116cf565b81146116ed57600080fd5b50565b6000813590506116ff816116d9565b92915050565b60006020828403121561171b5761171a611316565b5b6000611729848285016116f0565b91505092915050565b600081519050919050565b600082825260208201905092915050565b60005b8381101561176c578082015181840152602081019050611751565b8381111561177b576000848401525b50505050565b600061178c82611732565b611796818561173d565b93506117a681856020860161174e565b6117af8161132a565b840191505092915050565b600081519050919050565b600082825260208201905092915050565b60006117e1826117ba565b6117eb81856117c5565b93506117fb81856020860161174e565b6118048161132a565b840191505092915050565b600060808201905081810360008301526118298187611781565b9050818103602083015261183d8186611781565b9050818103604083015261185181856117d6565b905081810360608301526118658184611781565b905095945050505050565b600081519050919050565b600082825260208201905092915050565b6000819050602082019050919050565b600082825260208201905092915050565b60006118b8826117ba565b6118c2818561189c565b93506118d281856020860161174e565b6118db8161132a565b840191505092915050565b600082825260208201905092915050565b600061190282611732565b61190c81856118e6565b935061191c81856020860161174e565b6119258161132a565b840191505092915050565b6000606083016000830151848203600086015261194d82826118ad565b9150506020830151848203602086015261196782826118f7565b9150506040830151848203604086015261198182826118f7565b9150508091505092915050565b600061199a8383611930565b905092915050565b6000602082019050919050565b60006119ba82611870565b6119c4818561187b565b9350836020820285016119d68561188c565b8060005b85811015611a1257848403895281516119f3858261198e565b94506119fe836119a2565b925060208a019950506001810190506119da565b50829750879550505050505092915050565b60006020820190508181036000830152611a3e81846119af565b905092915050565b60008115159050919050565b611a5b81611a46565b82525050565b6000602082019050611a766000830184611a52565b92915050565b60006020820190508181036000830152611a9681846117d6565b905092915050565b60006040820190508181036000830152611ab88185611781565b90508181036020830152611acc81846117d6565b90509392505050565b600081905092915050565b6000611aeb82611732565b611af58185611ad5565b9350611b0581856020860161174e565b80840191505092915050565b6000611b1d8284611ae0565b915081905092915050565b7f4e487b7100000000000000000000000000000000000000000000000000000000600052602260045260246000fd5b60006002820490506001821680611b6f57607f821691505b60208210811415611b8357611b82611b28565b5b50919050565b7f5468697320646f63756d656e7420646f6573206e6f7420657869737400000000600082015250565b6000611bbf601c8361173d565b9150611bca82611b89565b602082019050919050565b60006020820190508181036000830152611bee81611bb2565b9050919050565b7f5468697320646f63756d656e74206973206e6f74206f726967696e616c000000600082015250565b6000611c2b601d8361173d565b9150611c3682611bf5565b602082019050919050565b60006020820190508181036000830152611c5a81611c1e565b9050919050565b60006060820190508181036000830152611c7b8186611781565b90508181036020830152611c8f81856117d6565b90508181036040830152611ca38184611781565b9050949350505050565b7f4e487b7100000000000000000000000000000000000000000000000000000000600052603260045260246000fd5b60008190508160005260206000209050919050565b60008154611cfe81611b57565b611d088186611ad5565b94506001821660008114611d235760018114611d3457611d67565b60ff19831686528186019350611d67565b611d3d85611cdc565b60005b83811015611d5f57815481890152600182019150602081019050611d40565b838801955050505b50505092915050565b6000611d7c8284611cf1565b915081905092915050565b7f4e487b7100000000000000000000000000000000000000000000000000000000600052601160045260246000fd5b6000611dc1826116cf565b91507fffffffffffffffffffffffffffffffffffffffffffffffffffffffffffffffff821415611df457611df3611d87565b5b60018201905091905056fea2646970667358221220197911b2cb128db40c24896add7602e1c15d9cf7ad6e62c16321314d28c38f5664736f6c63430008090033",
  "immutableReferences": {},
  "source": "// SPDX-License-Identifier: UNLICENSED\npragma solidity ^0.8.9;\n\n/// @title A contract to issue/get/revoke documents to anyone\n/// @author g-s01\n/// @notice A contract to issue/get/revoke documents to anyone\n/// @dev Verification of the document is not implemented, and will be done in the frontend\ncontract Record{\n    // A document can be uniquely identified by the recipient's email,\n    // the hash of the document on IPFS\n    // and the email of the organization that issued the document\n    struct Document{\n        string documentName;\n        string recipientEmail;\n        bytes ipfsHashSigned;\n        string orgEmail;\n    }\n    struct recipientEmailAndDocumentNameAndDocumentHashAndOrgEmail{\n        string recipientEmail;\n        string documentName;\n        bytes documentHash;\n        string orgEmail;\n    }\n    struct recipientEmailAndPublicKey{\n        string recipientEmail;\n        bytes publicKey;\n    }\n    // struct recipientEmailAndPrivateKey{\n    //     string recipientEmail;\n    //     bytes privateKey;\n    // }\n    struct DocumentHashAndDocumentNameAndOrgEmail{\n        bytes documentHash;\n        string documentName;\n        string orgEmail;\n    }\n    // An array of email and public keys\n    recipientEmailAndPublicKey[] public recipientEmailAndPublicKeys;\n    // An array of email and private keys\n    // recipientEmailAndPrivateKey[] public recipientEmailAndPrivateKeys;\n    // An array of email and document hash and organization email\n    recipientEmailAndDocumentNameAndDocumentHashAndOrgEmail[] public recipientEmailAndDocumentNameAndDocumentHashAndOrgEmails;\n    // A mapping from the document ID to the document\n    mapping(string => Document) public documents;\n    // An event that is emitted when a document is issued\n    event documentIssued(string recipientEmail, bytes ipfsHashSigned, string orgEmail);\n    // Modifier to check whether the certificate is original or not\n    modifier isOriginal(string memory documentId){\n        require(\n            bytes(documents[documentId].ipfsHashSigned).length == 0,\n            \"This document is not original\"\n        );\n        _;\n    }\n    // Modifier to check whether the certificate exists or not\n    modifier isExist(string memory documentId){\n        require(\n            bytes(documents[documentId].ipfsHashSigned).length != 0,\n            \"This document does not exist\"\n        );\n        _;\n    }\n    // A function to issue a document\n    function issueDocument(\n        string memory documentId,\n        string memory documentName,\n        string memory recipientEmail,\n        bytes memory ipfsHashSigned,\n        string memory orgEmail\n    ) public isOriginal (documentId){\n        Document memory newDocument = Document(\n            documentName,\n            recipientEmail,\n            ipfsHashSigned,\n            orgEmail\n        );\n        documents[documentId] = newDocument;\n        recipientEmailAndDocumentNameAndDocumentHashAndOrgEmails.push(recipientEmailAndDocumentNameAndDocumentHashAndOrgEmail(recipientEmail, documentName, ipfsHashSigned, orgEmail));\n        emit documentIssued(recipientEmail, ipfsHashSigned, orgEmail);\n    }\n    // A function to get certificates for a particular email\n    function getDocument(string memory email)\n        public\n        view\n        returns (DocumentHashAndDocumentNameAndOrgEmail[] memory)\n    {\n        uint256 count = 0;\n        for (uint256 i = 0; i < recipientEmailAndDocumentNameAndDocumentHashAndOrgEmails.length; i++) {\n            if (keccak256(abi.encodePacked(recipientEmailAndDocumentNameAndDocumentHashAndOrgEmails[i].recipientEmail)) == keccak256(abi.encodePacked(email))) {\n                count++;\n            }\n        }\n        DocumentHashAndDocumentNameAndOrgEmail[] memory documentIds = new DocumentHashAndDocumentNameAndOrgEmail[](count);\n        uint256 j = 0;\n        for (uint256 i = 0; i < recipientEmailAndDocumentNameAndDocumentHashAndOrgEmails.length; i++) {\n            if (keccak256(abi.encodePacked(recipientEmailAndDocumentNameAndDocumentHashAndOrgEmails[i].recipientEmail)) == keccak256(abi.encodePacked(email))) {\n                documentIds[j] = DocumentHashAndDocumentNameAndOrgEmail(recipientEmailAndDocumentNameAndDocumentHashAndOrgEmails[i].documentHash,recipientEmailAndDocumentNameAndDocumentHashAndOrgEmails[i].documentName,recipientEmailAndDocumentNameAndDocumentHashAndOrgEmails[i].orgEmail);\n                j++;\n            }\n        }\n        return documentIds;\n    }\n    // A function to revoke a document\n    function revokeDocument(string memory documentId) public isExist(documentId){\n        documents[documentId].ipfsHashSigned = \"\";\n    }\n    // A function to store email and public key\n    function storeEmailAndPublicKey(string memory email, bytes memory publicKey) public {\n        recipientEmailAndPublicKeys.push(recipientEmailAndPublicKey(email, publicKey));\n    }\n    // A function to retrieve public key from email\n    function getPublicKey(string memory email) public view returns (bytes memory){\n        for (uint256 i = 0; i < recipientEmailAndPublicKeys.length; i++) {\n            if (keccak256(abi.encodePacked(recipientEmailAndPublicKeys[i].recipientEmail)) == keccak256(abi.encodePacked(email))) {\n                return recipientEmailAndPublicKeys[i].publicKey;\n            }\n        }\n        return \"\";\n    }\n    // A function to store email and private key\n    // function storeEmailAndPrivateKey(string memory email, bytes memory privateKey) public {\n    //     recipientEmailAndPrivateKeys.push(recipientEmailAndPrivateKey(email, privateKey));\n    // }\n    // A function to retrieve private key from email\n    // function getPrivateKey(string memory email) public view returns (bytes memory){\n    //     for (uint256 i = 0; i < recipientEmailAndPrivateKeys.length; i++) {\n    //         if (keccak256(abi.encodePacked(recipientEmailAndPrivateKeys[i].recipientEmail)) == keccak256(abi.encodePacked(email))) {\n    //             return recipientEmailAndPrivateKeys[i].privateKey;\n    //         }\n    //     }\n    //     return \"\";\n    // }\n    // A function to see whether a document exists or not\n    function isDocumentExist(string memory documentId) public view returns (bool){\n        if (bytes(documents[documentId].ipfsHashSigned).length != 0) {\n            return true;\n        }\n        return false;\n    }\n}",
  "sourcePath": "/Users/gautamsharma/Desktop/DCert-backend/contracts/document.sol",
  "compiler": {
    "name": "solc",
    "version": "0.8.9+commit.e5eed63a.Emscripten.clang"
  },
  "schemaVersion": "3.4.16",
  "updatedAt": "2024-02-10T09:28:26.464Z",
  "networkType": "ethereum",
  "devdoc": {
    "author": "g-s01",
    "details": "Verification of the document is not implemented, and will be done in the frontend",
    "kind": "dev",
    "methods": {},
    "title": "A contract to issue/get/revoke documents to anyone",
    "version": 1
  },
  "userdoc": {
    "kind": "user",
    "methods": {},
    "notice": "A contract to issue/get/revoke documents to anyone",
    "version": 1
  }
}