{
  "contractName": "Record",
  "abi": [
    {
      "anonymous": false,
      "inputs": [
        {
          "indexed": false,
          "internalType": "string",
          "name": "recipientEmail",
          "type": "string"
        },
        {
          "indexed": false,
          "internalType": "string",
          "name": "ipfsHash",
          "type": "string"
        },
        {
          "indexed": false,
          "internalType": "string",
          "name": "ipfsHashSignedWithPrivateKey",
          "type": "string"
        },
        {
          "indexed": false,
          "internalType": "string",
          "name": "orgEmail",
          "type": "string"
        }
      ],
      "name": "documentIssued",
      "type": "event"
    },
    {
      "inputs": [
        {
          "internalType": "string",
          "name": "",
          "type": "string"
        }
      ],
      "name": "documents",
      "outputs": [
        {
          "internalType": "string",
          "name": "recipientEmail",
          "type": "string"
        },
        {
          "internalType": "string",
          "name": "ipfsHash",
          "type": "string"
        },
        {
          "internalType": "string",
          "name": "ipfsHashSignedWithPrivateKey",
          "type": "string"
        },
        {
          "internalType": "string",
          "name": "orgEmail",
          "type": "string"
        }
      ],
      "stateMutability": "view",
      "type": "function",
      "constant": true
    },
    {
      "inputs": [
        {
          "internalType": "uint256",
          "name": "",
          "type": "uint256"
        }
      ],
      "name": "emailAndDocumentHashAndOrgEmails",
      "outputs": [
        {
          "internalType": "string",
          "name": "email",
          "type": "string"
        },
        {
          "internalType": "string",
          "name": "documentHash",
          "type": "string"
        },
        {
          "internalType": "string",
          "name": "orgEmail",
          "type": "string"
        }
      ],
      "stateMutability": "view",
      "type": "function",
      "constant": true
    },
    {
      "inputs": [
        {
          "internalType": "uint256",
          "name": "",
          "type": "uint256"
        }
      ],
      "name": "emailAndPublicKeys",
      "outputs": [
        {
          "internalType": "string",
          "name": "email",
          "type": "string"
        },
        {
          "internalType": "string",
          "name": "publicKey",
          "type": "string"
        }
      ],
      "stateMutability": "view",
      "type": "function",
      "constant": true
    },
    {
      "inputs": [
        {
          "internalType": "string",
          "name": "documentId",
          "type": "string"
        },
        {
          "internalType": "string",
          "name": "recipientEmail",
          "type": "string"
        },
        {
          "internalType": "string",
          "name": "ipfsHash",
          "type": "string"
        },
        {
          "internalType": "string",
          "name": "ipfsHashSignedWithPrivateKey",
          "type": "string"
        },
        {
          "internalType": "string",
          "name": "orgEmail",
          "type": "string"
        }
      ],
      "name": "issueDocument",
      "outputs": [],
      "stateMutability": "nonpayable",
      "type": "function"
    },
    {
      "inputs": [
        {
          "internalType": "string",
          "name": "email",
          "type": "string"
        }
      ],
      "name": "getDocument",
      "outputs": [
        {
          "components": [
            {
              "internalType": "string",
              "name": "documentHash",
              "type": "string"
            },
            {
              "internalType": "string",
              "name": "orgEmail",
              "type": "string"
            }
          ],
          "internalType": "struct Record.DocumentHashAndOrgEmail[]",
          "name": "",
          "type": "tuple[]"
        }
      ],
      "stateMutability": "view",
      "type": "function",
      "constant": true
    },
    {
      "inputs": [
        {
          "internalType": "string",
          "name": "documentId",
          "type": "string"
        }
      ],
      "name": "revokeDocument",
      "outputs": [],
      "stateMutability": "nonpayable",
      "type": "function"
    },
    {
      "inputs": [
        {
          "internalType": "string",
          "name": "email",
          "type": "string"
        },
        {
          "internalType": "string",
          "name": "publicKey",
          "type": "string"
        }
      ],
      "name": "storeEmailAndPublicKey",
      "outputs": [],
      "stateMutability": "nonpayable",
      "type": "function"
    },
    {
      "inputs": [
        {
          "internalType": "string",
          "name": "email",
          "type": "string"
        }
      ],
      "name": "getPublicKey",
      "outputs": [
        {
          "internalType": "string",
          "name": "",
          "type": "string"
        }
      ],
      "stateMutability": "view",
      "type": "function",
      "constant": true
    }
  ],
  "bytecode": "0x608060405234801561001057600080fd5b50611a07806100206000396000f3fe608060405234801561001057600080fd5b50600436106100885760003560e01c8063bff908211161005b578063bff908211461013d578063d713f23a1461016d578063f9a00ba414610189578063fe71808e146101a557610088565b8063029ba59b1461008d5780637ccb6a64146100a95780637e022404146100d9578063b3dd697b1461010a575b600080fd5b6100a760048036038101906100a291906111c8565b6101d7565b005b6100c360048036038101906100be91906111c8565b6102ae565b6040516100d0919061139f565b60405180910390f35b6100f360048036038101906100ee91906113f7565b6105f8565b60405161010192919061146e565b60405180910390f35b610124600480360381019061011f91906111c8565b61073c565b60405161013494939291906114a5565b60405180910390f35b610157600480360381019061015291906111c8565b6109a2565b6040516101649190611506565b60405180910390f35b61018760048036038101906101829190611528565b610b0e565b005b6101a3600480360381019061019e91906115a0565b610b8e565b005b6101bf60048036038101906101ba91906113f7565b610d9f565b6040516101ce939291906116a7565b60405180910390f35b8060006002826040516101ea919061172f565b9081526020016040518091039020600101805461020690611775565b90501415610249576040517f08c379a0000000000000000000000000000000000000000000000000000000008152600401610240906117f3565b60405180910390fd5b600282604051610259919061172f565b9081526020016040518091039020600080820160006102789190610f71565b6001820160006102889190610f71565b6002820160006102989190610f71565b6003820160006102a89190610f71565b50505050565b60606000805b60018054905081101561035b57836040516020016102d2919061172f565b60405160208183030381529060405280519060200120600182815481106102fc576102fb611813565b5b906000526020600020906003020160000160405160200161031d91906118d6565b6040516020818303038152906040528051906020012014156103485781806103449061191c565b9250505b80806103539061191c565b9150506102b4565b5060008167ffffffffffffffff8111156103785761037761109d565b5b6040519080825280602002602001820160405280156103b157816020015b61039e610fb1565b8152602001906001900390816103965790505b5090506000805b6001805490508110156105ec57856040516020016103d6919061172f565b6040516020818303038152906040528051906020012060018281548110610400576103ff611813565b5b906000526020600020906003020160000160405160200161042191906118d6565b6040516020818303038152906040528051906020012014156105d95760405180604001604052806001838154811061045c5761045b611813565b5b9060005260206000209060030201600101805461047890611775565b80601f01602080910402602001604051908101604052809291908181526020018280546104a490611775565b80156104f15780601f106104c6576101008083540402835291602001916104f1565b820191906000526020600020905b8154815290600101906020018083116104d457829003601f168201915b505050505081526020016001838154811061050f5761050e611813565b5b9060005260206000209060030201600201805461052b90611775565b80601f016020809104026020016040519081016040528092919081815260200182805461055790611775565b80156105a45780601f10610579576101008083540402835291602001916105a4565b820191906000526020600020905b81548152906001019060200180831161058757829003601f168201915b50505050508152508383815181106105bf576105be611813565b5b602002602001018190525081806105d59061191c565b9250505b80806105e49061191c565b9150506103b8565b50819350505050919050565b6000818154811061060857600080fd5b906000526020600020906002020160009150905080600001805461062b90611775565b80601f016020809104026020016040519081016040528092919081815260200182805461065790611775565b80156106a45780601f10610679576101008083540402835291602001916106a4565b820191906000526020600020905b81548152906001019060200180831161068757829003601f168201915b5050505050908060010180546106b990611775565b80601f01602080910402602001604051908101604052809291908181526020018280546106e590611775565b80156107325780601f1061070757610100808354040283529160200191610732565b820191906000526020600020905b81548152906001019060200180831161071557829003601f168201915b5050505050905082565b60028180516020810182018051848252602083016020850120818352809550505050505060009150905080600001805461077590611775565b80601f01602080910402602001604051908101604052809291908181526020018280546107a190611775565b80156107ee5780601f106107c3576101008083540402835291602001916107ee565b820191906000526020600020905b8154815290600101906020018083116107d157829003601f168201915b50505050509080600101805461080390611775565b80601f016020809104026020016040519081016040528092919081815260200182805461082f90611775565b801561087c5780601f106108515761010080835404028352916020019161087c565b820191906000526020600020905b81548152906001019060200180831161085f57829003601f168201915b50505050509080600201805461089190611775565b80601f01602080910402602001604051908101604052809291908181526020018280546108bd90611775565b801561090a5780601f106108df5761010080835404028352916020019161090a565b820191906000526020600020905b8154815290600101906020018083116108ed57829003601f168201915b50505050509080600301805461091f90611775565b80601f016020809104026020016040519081016040528092919081815260200182805461094b90611775565b80156109985780601f1061096d57610100808354040283529160200191610998565b820191906000526020600020905b81548152906001019060200180831161097b57829003601f168201915b5050505050905084565b606060005b600080549050811015610af557826040516020016109c5919061172f565b60405160208183030381529060405280519060200120600082815481106109ef576109ee611813565b5b9060005260206000209060020201600001604051602001610a1091906118d6565b604051602081830303815290604052805190602001201415610ae25760008181548110610a4057610a3f611813565b5b90600052602060002090600202016001018054610a5c90611775565b80601f0160208091040260200160405190810160405280929190818152602001828054610a8890611775565b8015610ad55780601f10610aaa57610100808354040283529160200191610ad5565b820191906000526020600020905b815481529060010190602001808311610ab857829003601f168201915b5050505050915050610b09565b8080610aed9061191c565b9150506109a7565b506040518060200160405280600081525090505b919050565b600060405180604001604052808481526020018381525090806001815401808255809150506001900390600052602060002090600202016000909190919091506000820151816000019080519060200190610b6a929190610fcb565b506020820151816001019080519060200190610b87929190610fcb565b5050505050565b826000600282604051610ba1919061172f565b90815260200160405180910390206001018054610bbd90611775565b905014610bff576040517f08c379a0000000000000000000000000000000000000000000000000000000008152600401610bf6906119b1565b60405180910390fd5b6000604051806080016040528087815260200186815260200185815260200184815250905080600288604051610c35919061172f565b90815260200160405180910390206000820151816000019080519060200190610c5f929190610fcb565b506020820151816001019080519060200190610c7c929190610fcb565b506040820151816002019080519060200190610c99929190610fcb565b506060820151816003019080519060200190610cb6929190610fcb565b50905050600160405180606001604052808881526020018781526020018581525090806001815401808255809150506001900390600052602060002090600302016000909190919091506000820151816000019080519060200190610d1c929190610fcb565b506020820151816001019080519060200190610d39929190610fcb565b506040820151816002019080519060200190610d56929190610fcb565b5050507f7c94488ae93a52b0e58ad7ea0b1d6600af1936dc546ea02a995546030faf7f9986868686604051610d8e94939291906114a5565b60405180910390a150505050505050565b60018181548110610daf57600080fd5b9060005260206000209060030201600091509050806000018054610dd290611775565b80601f0160208091040260200160405190810160405280929190818152602001828054610dfe90611775565b8015610e4b5780601f10610e2057610100808354040283529160200191610e4b565b820191906000526020600020905b815481529060010190602001808311610e2e57829003601f168201915b505050505090806001018054610e6090611775565b80601f0160208091040260200160405190810160405280929190818152602001828054610e8c90611775565b8015610ed95780601f10610eae57610100808354040283529160200191610ed9565b820191906000526020600020905b815481529060010190602001808311610ebc57829003601f168201915b505050505090806002018054610eee90611775565b80601f0160208091040260200160405190810160405280929190818152602001828054610f1a90611775565b8015610f675780601f10610f3c57610100808354040283529160200191610f67565b820191906000526020600020905b815481529060010190602001808311610f4a57829003601f168201915b5050505050905083565b508054610f7d90611775565b6000825580601f10610f8f5750610fae565b601f016020900490600052602060002090810190610fad9190611051565b5b50565b604051806040016040528060608152602001606081525090565b828054610fd790611775565b90600052602060002090601f016020900481019282610ff95760008555611040565b82601f1061101257805160ff1916838001178555611040565b82800160010185558215611040579182015b8281111561103f578251825591602001919060010190611024565b5b50905061104d9190611051565b5090565b5b8082111561106a576000816000905550600101611052565b5090565b6000604051905090565b600080fd5b600080fd5b600080fd5b600080fd5b6000601f19601f8301169050919050565b7f4e487b7100000000000000000000000000000000000000000000000000000000600052604160045260246000fd5b6110d58261108c565b810181811067ffffffffffffffff821117156110f4576110f361109d565b5b80604052505050565b600061110761106e565b905061111382826110cc565b919050565b600067ffffffffffffffff8211156111335761113261109d565b5b61113c8261108c565b9050602081019050919050565b82818337600083830152505050565b600061116b61116684611118565b6110fd565b90508281526020810184848401111561118757611186611087565b5b611192848285611149565b509392505050565b600082601f8301126111af576111ae611082565b5b81356111bf848260208601611158565b91505092915050565b6000602082840312156111de576111dd611078565b5b600082013567ffffffffffffffff8111156111fc576111fb61107d565b5b6112088482850161119a565b91505092915050565b600081519050919050565b600082825260208201905092915050565b6000819050602082019050919050565b600081519050919050565b600082825260208201905092915050565b60005b8381101561127757808201518184015260208101905061125c565b83811115611286576000848401525b50505050565b60006112978261123d565b6112a18185611248565b93506112b1818560208601611259565b6112ba8161108c565b840191505092915050565b600060408301600083015184820360008601526112e2828261128c565b915050602083015184820360208601526112fc828261128c565b9150508091505092915050565b600061131583836112c5565b905092915050565b6000602082019050919050565b600061133582611211565b61133f818561121c565b9350836020820285016113518561122d565b8060005b8581101561138d578484038952815161136e8582611309565b94506113798361131d565b925060208a01995050600181019050611355565b50829750879550505050505092915050565b600060208201905081810360008301526113b9818461132a565b905092915050565b6000819050919050565b6113d4816113c1565b81146113df57600080fd5b50565b6000813590506113f1816113cb565b92915050565b60006020828403121561140d5761140c611078565b5b600061141b848285016113e2565b91505092915050565b600082825260208201905092915050565b60006114408261123d565b61144a8185611424565b935061145a818560208601611259565b6114638161108c565b840191505092915050565b600060408201905081810360008301526114888185611435565b9050818103602083015261149c8184611435565b90509392505050565b600060808201905081810360008301526114bf8187611435565b905081810360208301526114d38186611435565b905081810360408301526114e78185611435565b905081810360608301526114fb8184611435565b905095945050505050565b600060208201905081810360008301526115208184611435565b905092915050565b6000806040838503121561153f5761153e611078565b5b600083013567ffffffffffffffff81111561155d5761155c61107d565b5b6115698582860161119a565b925050602083013567ffffffffffffffff81111561158a5761158961107d565b5b6115968582860161119a565b9150509250929050565b600080600080600060a086880312156115bc576115bb611078565b5b600086013567ffffffffffffffff8111156115da576115d961107d565b5b6115e68882890161119a565b955050602086013567ffffffffffffffff8111156116075761160661107d565b5b6116138882890161119a565b945050604086013567ffffffffffffffff8111156116345761163361107d565b5b6116408882890161119a565b935050606086013567ffffffffffffffff8111156116615761166061107d565b5b61166d8882890161119a565b925050608086013567ffffffffffffffff81111561168e5761168d61107d565b5b61169a8882890161119a565b9150509295509295909350565b600060608201905081810360008301526116c18186611435565b905081810360208301526116d58185611435565b905081810360408301526116e98184611435565b9050949350505050565b600081905092915050565b60006117098261123d565b61171381856116f3565b9350611723818560208601611259565b80840191505092915050565b600061173b82846116fe565b915081905092915050565b7f4e487b7100000000000000000000000000000000000000000000000000000000600052602260045260246000fd5b6000600282049050600182168061178d57607f821691505b602082108114156117a1576117a0611746565b5b50919050565b7f5468697320646f63756d656e7420646f6573206e6f7420657869737400000000600082015250565b60006117dd601c83611424565b91506117e8826117a7565b602082019050919050565b6000602082019050818103600083015261180c816117d0565b9050919050565b7f4e487b7100000000000000000000000000000000000000000000000000000000600052603260045260246000fd5b60008190508160005260206000209050919050565b6000815461186481611775565b61186e81866116f3565b94506001821660008114611889576001811461189a576118cd565b60ff198316865281860193506118cd565b6118a385611842565b60005b838110156118c5578154818901526001820191506020810190506118a6565b838801955050505b50505092915050565b60006118e28284611857565b915081905092915050565b7f4e487b7100000000000000000000000000000000000000000000000000000000600052601160045260246000fd5b6000611927826113c1565b91507fffffffffffffffffffffffffffffffffffffffffffffffffffffffffffffffff82141561195a576119596118ed565b5b600182019050919050565b7f5468697320646f63756d656e74206973206e6f74206f726967696e616c000000600082015250565b600061199b601d83611424565b91506119a682611965565b602082019050919050565b600060208201905081810360008301526119ca8161198e565b905091905056fea2646970667358221220b855e4e6baf0762e6faf1eec75b2a5d49c043faa16364da9cd4222e0da05edf164736f6c63430008090033",
  "immutableReferences": {},
  "source": "// SPDX-License-Identifier: UNLICENSED\npragma solidity ^0.8.9;\n\n/// @title A contract to issue/get/revoke documents to anyone\n/// @author g-s01\n/// @notice A contract to issue/get/revoke documents to anyone\n/// @dev Verification of the document is not implemented, and will be done somewhere else\ncontract Record{\n    // A document can be uniquely identified by the recipient's email,\n    // the hash of the document on IPFS\n    // and the email of the organization that issued the document\n    struct Document{\n        string recipientEmail;\n        string ipfsHash;\n        string ipfsHashSignedWithPrivateKey;\n        string orgEmail;\n    }\n    struct emailAndDocumentHashAndOrgEmail{\n        string email;\n        string documentHash;\n        string orgEmail;\n    }\n    struct emailAndPublicKey{\n        string email;\n        string publicKey;\n    }\n    struct DocumentHashAndOrgEmail{\n        string documentHash;\n        string orgEmail;\n    }\n    emailAndPublicKey[] public emailAndPublicKeys;\n    emailAndDocumentHashAndOrgEmail[] public emailAndDocumentHashAndOrgEmails;\n    // A mapping from the document ID to the document\n    mapping(string => Document) public documents;\n    // An event that is emitted when a document is issued\n    event documentIssued(string recipientEmail, string ipfsHash, string ipfsHashSignedWithPrivateKey, string orgEmail);\n    // Modifier to check whether the certificate is original or not\n    modifier isOriginal(string memory documentId){\n        require(\n            bytes(documents[documentId].ipfsHash).length == 0,\n            \"This document is not original\"\n        );\n        _;\n    }\n    // Modifier to check whether the certificate exists or not\n    modifier isExist(string memory documentId){\n        require(\n            bytes(documents[documentId].ipfsHash).length != 0,\n            \"This document does not exist\"\n        );\n        _;\n    }\n    // A function to issue a document\n    function issueDocument(\n        string memory documentId,\n        string memory recipientEmail,\n        string memory ipfsHash,\n        string memory ipfsHashSignedWithPrivateKey,\n        string memory orgEmail\n    ) public isOriginal (ipfsHash){\n        Document memory newDocument = Document(\n            recipientEmail,\n            ipfsHash,\n            ipfsHashSignedWithPrivateKey,\n            orgEmail\n        );\n        documents[documentId] = newDocument;\n        emailAndDocumentHashAndOrgEmails.push(emailAndDocumentHashAndOrgEmail(recipientEmail, ipfsHash, orgEmail));\n        emit documentIssued(recipientEmail, ipfsHash, ipfsHashSignedWithPrivateKey, orgEmail);\n    }\n    // A function to get certificates for a particular email\n    function getDocument(string memory email)\n        public\n        view\n        returns (DocumentHashAndOrgEmail[] memory)\n    {\n        uint256 count = 0;\n        for (uint256 i = 0; i < emailAndDocumentHashAndOrgEmails.length; i++) {\n            if (keccak256(abi.encodePacked(emailAndDocumentHashAndOrgEmails[i].email)) == keccak256(abi.encodePacked(email))) {\n                count++;\n            }\n        }\n        DocumentHashAndOrgEmail[] memory documentIds = new DocumentHashAndOrgEmail[](count);\n        uint256 j = 0;\n        for (uint256 i = 0; i < emailAndDocumentHashAndOrgEmails.length; i++) {\n            if (keccak256(abi.encodePacked(emailAndDocumentHashAndOrgEmails[i].email)) == keccak256(abi.encodePacked(email))) {\n                documentIds[j] = DocumentHashAndOrgEmail(emailAndDocumentHashAndOrgEmails[i].documentHash, emailAndDocumentHashAndOrgEmails[i].orgEmail);\n                j++;\n            }\n        }\n        return documentIds;\n    }\n    // A function to revoke a document\n    function revokeDocument(string memory documentId) public isExist(documentId){\n        delete documents[documentId];\n    }\n    // A function to store email and public key\n    function storeEmailAndPublicKey(string memory email, string memory publicKey) public {\n        emailAndPublicKeys.push(emailAndPublicKey(email, publicKey));\n    }\n    // A function to retrieve public key from email\n    function getPublicKey(string memory email) public view returns (string memory){\n        for (uint256 i = 0; i < emailAndPublicKeys.length; i++) {\n            if (keccak256(abi.encodePacked(emailAndPublicKeys[i].email)) == keccak256(abi.encodePacked(email))) {\n                return emailAndPublicKeys[i].publicKey;\n            }\n        }\n        return \"\";\n    }\n}",
  "sourcePath": "/Users/gautamsharma/Desktop/DCert-backend/contracts/document.sol",
  "compiler": {
    "name": "solc",
    "version": "0.8.9+commit.e5eed63a.Emscripten.clang"
  },
  "schemaVersion": "3.4.16",
  "updatedAt": "2024-02-06T09:24:34.877Z",
  "networkType": "ethereum",
  "devdoc": {
    "author": "g-s01",
    "details": "Verification of the document is not implemented, and will be done somewhere else",
    "kind": "dev",
    "methods": {},
    "title": "A contract to issue/get/revoke documents to anyone",
    "version": 1
  },
  "userdoc": {
    "kind": "user",
    "methods": {},
    "notice": "A contract to issue/get/revoke documents to anyone",
    "version": 1
  }
}