{
  "contractName": "Record",
  "abi": [
    {
      "anonymous": false,
      "inputs": [
        {
          "indexed": false,
          "internalType": "string",
          "name": "recipientEmail",
          "type": "string"
        },
        {
          "indexed": false,
          "internalType": "bytes",
          "name": "ipfsHashSigned",
          "type": "bytes"
        },
        {
          "indexed": false,
          "internalType": "string",
          "name": "orgEmail",
          "type": "string"
        }
      ],
      "name": "documentIssued",
      "type": "event"
    },
    {
      "inputs": [
        {
          "internalType": "string",
          "name": "",
          "type": "string"
        }
      ],
      "name": "documents",
      "outputs": [
        {
          "internalType": "string",
          "name": "recipientEmail",
          "type": "string"
        },
        {
          "internalType": "bytes",
          "name": "ipfsHashSigned",
          "type": "bytes"
        },
        {
          "internalType": "string",
          "name": "orgEmail",
          "type": "string"
        }
      ],
      "stateMutability": "view",
      "type": "function",
      "constant": true
    },
    {
      "inputs": [
        {
          "internalType": "uint256",
          "name": "",
          "type": "uint256"
        }
      ],
      "name": "emailAndDocumentHashAndOrgEmails",
      "outputs": [
        {
          "internalType": "string",
          "name": "email",
          "type": "string"
        },
        {
          "internalType": "bytes",
          "name": "documentHash",
          "type": "bytes"
        },
        {
          "internalType": "string",
          "name": "orgEmail",
          "type": "string"
        }
      ],
      "stateMutability": "view",
      "type": "function",
      "constant": true
    },
    {
      "inputs": [
        {
          "internalType": "uint256",
          "name": "",
          "type": "uint256"
        }
      ],
      "name": "emailAndPrivateKeys",
      "outputs": [
        {
          "internalType": "string",
          "name": "email",
          "type": "string"
        },
        {
          "internalType": "bytes",
          "name": "privateKey",
          "type": "bytes"
        }
      ],
      "stateMutability": "view",
      "type": "function",
      "constant": true
    },
    {
      "inputs": [
        {
          "internalType": "uint256",
          "name": "",
          "type": "uint256"
        }
      ],
      "name": "emailAndPublicKeys",
      "outputs": [
        {
          "internalType": "string",
          "name": "email",
          "type": "string"
        },
        {
          "internalType": "bytes",
          "name": "publicKey",
          "type": "bytes"
        }
      ],
      "stateMutability": "view",
      "type": "function",
      "constant": true
    },
    {
      "inputs": [
        {
          "internalType": "string",
          "name": "documentId",
          "type": "string"
        },
        {
          "internalType": "string",
          "name": "recipientEmail",
          "type": "string"
        },
        {
          "internalType": "bytes",
          "name": "ipfsHashSigned",
          "type": "bytes"
        },
        {
          "internalType": "string",
          "name": "orgEmail",
          "type": "string"
        }
      ],
      "name": "issueDocument",
      "outputs": [],
      "stateMutability": "nonpayable",
      "type": "function"
    },
    {
      "inputs": [
        {
          "internalType": "string",
          "name": "email",
          "type": "string"
        }
      ],
      "name": "getDocument",
      "outputs": [
        {
          "components": [
            {
              "internalType": "bytes",
              "name": "documentHash",
              "type": "bytes"
            },
            {
              "internalType": "string",
              "name": "orgEmail",
              "type": "string"
            }
          ],
          "internalType": "struct Record.DocumentHashAndOrgEmail[]",
          "name": "",
          "type": "tuple[]"
        }
      ],
      "stateMutability": "view",
      "type": "function",
      "constant": true
    },
    {
      "inputs": [
        {
          "internalType": "string",
          "name": "documentId",
          "type": "string"
        }
      ],
      "name": "revokeDocument",
      "outputs": [],
      "stateMutability": "nonpayable",
      "type": "function"
    },
    {
      "inputs": [
        {
          "internalType": "string",
          "name": "email",
          "type": "string"
        },
        {
          "internalType": "bytes",
          "name": "publicKey",
          "type": "bytes"
        }
      ],
      "name": "storeEmailAndPublicKey",
      "outputs": [],
      "stateMutability": "nonpayable",
      "type": "function"
    },
    {
      "inputs": [
        {
          "internalType": "string",
          "name": "email",
          "type": "string"
        }
      ],
      "name": "getPublicKey",
      "outputs": [
        {
          "internalType": "bytes",
          "name": "",
          "type": "bytes"
        }
      ],
      "stateMutability": "view",
      "type": "function",
      "constant": true
    },
    {
      "inputs": [
        {
          "internalType": "string",
          "name": "email",
          "type": "string"
        },
        {
          "internalType": "bytes",
          "name": "privateKey",
          "type": "bytes"
        }
      ],
      "name": "storeEmailAndPrivateKey",
      "outputs": [],
      "stateMutability": "nonpayable",
      "type": "function"
    },
    {
      "inputs": [
        {
          "internalType": "string",
          "name": "email",
          "type": "string"
        }
      ],
      "name": "getPrivateKey",
      "outputs": [
        {
          "internalType": "bytes",
          "name": "",
          "type": "bytes"
        }
      ],
      "stateMutability": "view",
      "type": "function",
      "constant": true
    }
  ],
  "bytecode": "0x608060405234801561001057600080fd5b50611e85806100206000396000f3fe608060405234801561001057600080fd5b50600436106100a95760003560e01c80637e022404116100715780637e022404146101635780639ae0f4c514610194578063b3dd697b146101c4578063bff90821146101f6578063c274c28a14610226578063fe71808e14610242576100a9565b8063029ba59b146100ae57806348af0085146100ca57806352b2c775146100e657806356a89c5b146101025780637ccb6a6414610133575b600080fd5b6100c860048036038101906100c39190611597565b610274565b005b6100e460048036038101906100df9190611681565b61033b565b005b61010060048036038101906100fb9190611681565b6103bb565b005b61011c6004803603810190610117919061172f565b61043b565b60405161012a929190611839565b60405180910390f35b61014d60048036038101906101489190611597565b61057f565b60405161015a9190611a0a565b60405180910390f35b61017d6004803603810190610178919061172f565b6108c9565b60405161018b929190611839565b60405180910390f35b6101ae60048036038101906101a99190611597565b610a0d565b6040516101bb9190611a2c565b60405180910390f35b6101de60048036038101906101d99190611597565b610b79565b6040516101ed93929190611a4e565b60405180910390f35b610210600480360381019061020b9190611597565b610d51565b60405161021d9190611a2c565b60405180910390f35b610240600480360381019061023b9190611a9a565b610ebd565b005b61025c6004803603810190610257919061172f565b6110a8565b60405161026b93929190611a4e565b60405180910390f35b8060006003826040516102879190611bad565b908152602001604051809103902060010180546102a390611bf3565b905014156102e6576040517f08c379a00000000000000000000000000000000000000000000000000000000081526004016102dd90611c71565b60405180910390fd5b6003826040516102f69190611bad565b908152602001604051809103902060008082016000610315919061127a565b60018201600061032591906112ba565b600282016000610335919061127a565b50505050565b6001604051806040016040528084815260200183815250908060018154018082558091505060019003906000526020600020906002020160009091909190915060008201518160000190805190602001906103979291906112fa565b5060208201518160010190805190602001906103b4929190611380565b5050505050565b6000604051806040016040528084815260200183815250908060018154018082558091505060019003906000526020600020906002020160009091909190915060008201518160000190805190602001906104179291906112fa565b506020820151816001019080519060200190610434929190611380565b5050505050565b6001818154811061044b57600080fd5b906000526020600020906002020160009150905080600001805461046e90611bf3565b80601f016020809104026020016040519081016040528092919081815260200182805461049a90611bf3565b80156104e75780601f106104bc576101008083540402835291602001916104e7565b820191906000526020600020905b8154815290600101906020018083116104ca57829003601f168201915b5050505050908060010180546104fc90611bf3565b80601f016020809104026020016040519081016040528092919081815260200182805461052890611bf3565b80156105755780601f1061054a57610100808354040283529160200191610575565b820191906000526020600020905b81548152906001019060200180831161055857829003601f168201915b5050505050905082565b60606000805b60028054905081101561062c57836040516020016105a39190611bad565b60405160208183030381529060405280519060200120600282815481106105cd576105cc611c91565b5b90600052602060002090600302016000016040516020016105ee9190611d54565b60405160208183030381529060405280519060200120141561061957818061061590611d9a565b9250505b808061062490611d9a565b915050610585565b5060008167ffffffffffffffff8111156106495761064861146c565b5b60405190808252806020026020018201604052801561068257816020015b61066f611406565b8152602001906001900390816106675790505b5090506000805b6002805490508110156108bd57856040516020016106a79190611bad565b60405160208183030381529060405280519060200120600282815481106106d1576106d0611c91565b5b90600052602060002090600302016000016040516020016106f29190611d54565b6040516020818303038152906040528051906020012014156108aa5760405180604001604052806002838154811061072d5761072c611c91565b5b9060005260206000209060030201600101805461074990611bf3565b80601f016020809104026020016040519081016040528092919081815260200182805461077590611bf3565b80156107c25780601f10610797576101008083540402835291602001916107c2565b820191906000526020600020905b8154815290600101906020018083116107a557829003601f168201915b50505050508152602001600283815481106107e0576107df611c91565b5b906000526020600020906003020160020180546107fc90611bf3565b80601f016020809104026020016040519081016040528092919081815260200182805461082890611bf3565b80156108755780601f1061084a57610100808354040283529160200191610875565b820191906000526020600020905b81548152906001019060200180831161085857829003601f168201915b50505050508152508383815181106108905761088f611c91565b5b602002602001018190525081806108a690611d9a565b9250505b80806108b590611d9a565b915050610689565b50819350505050919050565b600081815481106108d957600080fd5b90600052602060002090600202016000915090508060000180546108fc90611bf3565b80601f016020809104026020016040519081016040528092919081815260200182805461092890611bf3565b80156109755780601f1061094a57610100808354040283529160200191610975565b820191906000526020600020905b81548152906001019060200180831161095857829003601f168201915b50505050509080600101805461098a90611bf3565b80601f01602080910402602001604051908101604052809291908181526020018280546109b690611bf3565b8015610a035780601f106109d857610100808354040283529160200191610a03565b820191906000526020600020905b8154815290600101906020018083116109e657829003601f168201915b5050505050905082565b606060005b600180549050811015610b605782604051602001610a309190611bad565b6040516020818303038152906040528051906020012060018281548110610a5a57610a59611c91565b5b9060005260206000209060020201600001604051602001610a7b9190611d54565b604051602081830303815290604052805190602001201415610b4d5760018181548110610aab57610aaa611c91565b5b90600052602060002090600202016001018054610ac790611bf3565b80601f0160208091040260200160405190810160405280929190818152602001828054610af390611bf3565b8015610b405780601f10610b1557610100808354040283529160200191610b40565b820191906000526020600020905b815481529060010190602001808311610b2357829003601f168201915b5050505050915050610b74565b8080610b5890611d9a565b915050610a12565b506040518060200160405280600081525090505b919050565b600381805160208101820180518482526020830160208501208183528095505050505050600091509050806000018054610bb290611bf3565b80601f0160208091040260200160405190810160405280929190818152602001828054610bde90611bf3565b8015610c2b5780601f10610c0057610100808354040283529160200191610c2b565b820191906000526020600020905b815481529060010190602001808311610c0e57829003601f168201915b505050505090806001018054610c4090611bf3565b80601f0160208091040260200160405190810160405280929190818152602001828054610c6c90611bf3565b8015610cb95780601f10610c8e57610100808354040283529160200191610cb9565b820191906000526020600020905b815481529060010190602001808311610c9c57829003601f168201915b505050505090806002018054610cce90611bf3565b80601f0160208091040260200160405190810160405280929190818152602001828054610cfa90611bf3565b8015610d475780601f10610d1c57610100808354040283529160200191610d47565b820191906000526020600020905b815481529060010190602001808311610d2a57829003601f168201915b5050505050905083565b606060005b600080549050811015610ea45782604051602001610d749190611bad565b6040516020818303038152906040528051906020012060008281548110610d9e57610d9d611c91565b5b9060005260206000209060020201600001604051602001610dbf9190611d54565b604051602081830303815290604052805190602001201415610e915760008181548110610def57610dee611c91565b5b90600052602060002090600202016001018054610e0b90611bf3565b80601f0160208091040260200160405190810160405280929190818152602001828054610e3790611bf3565b8015610e845780601f10610e5957610100808354040283529160200191610e84565b820191906000526020600020905b815481529060010190602001808311610e6757829003601f168201915b5050505050915050610eb8565b8080610e9c90611d9a565b915050610d56565b506040518060200160405280600081525090505b919050565b836000600382604051610ed09190611bad565b90815260200160405180910390206001018054610eec90611bf3565b905014610f2e576040517f08c379a0000000000000000000000000000000000000000000000000000000008152600401610f2590611e2f565b60405180910390fd5b6000604051806060016040528086815260200185815260200184815250905080600387604051610f5e9190611bad565b90815260200160405180910390206000820151816000019080519060200190610f889291906112fa565b506020820151816001019080519060200190610fa5929190611380565b506040820151816002019080519060200190610fc29291906112fa565b509050506002604051806060016040528087815260200186815260200185815250908060018154018082558091505060019003906000526020600020906003020160009091909190915060008201518160000190805190602001906110289291906112fa565b506020820151816001019080519060200190611045929190611380565b5060408201518160020190805190602001906110629291906112fa565b5050507ff2edea14b6c400b15334891e90952a1b02d6e8ac6ed9139bfb5222d03508090e85858560405161109893929190611a4e565b60405180910390a1505050505050565b600281815481106110b857600080fd5b90600052602060002090600302016000915090508060000180546110db90611bf3565b80601f016020809104026020016040519081016040528092919081815260200182805461110790611bf3565b80156111545780601f1061112957610100808354040283529160200191611154565b820191906000526020600020905b81548152906001019060200180831161113757829003601f168201915b50505050509080600101805461116990611bf3565b80601f016020809104026020016040519081016040528092919081815260200182805461119590611bf3565b80156111e25780601f106111b7576101008083540402835291602001916111e2565b820191906000526020600020905b8154815290600101906020018083116111c557829003601f168201915b5050505050908060020180546111f790611bf3565b80601f016020809104026020016040519081016040528092919081815260200182805461122390611bf3565b80156112705780601f1061124557610100808354040283529160200191611270565b820191906000526020600020905b81548152906001019060200180831161125357829003601f168201915b5050505050905083565b50805461128690611bf3565b6000825580601f1061129857506112b7565b601f0160209004906000526020600020908101906112b69190611420565b5b50565b5080546112c690611bf3565b6000825580601f106112d857506112f7565b601f0160209004906000526020600020908101906112f69190611420565b5b50565b82805461130690611bf3565b90600052602060002090601f016020900481019282611328576000855561136f565b82601f1061134157805160ff191683800117855561136f565b8280016001018555821561136f579182015b8281111561136e578251825591602001919060010190611353565b5b50905061137c9190611420565b5090565b82805461138c90611bf3565b90600052602060002090601f0160209004810192826113ae57600085556113f5565b82601f106113c757805160ff19168380011785556113f5565b828001600101855582156113f5579182015b828111156113f45782518255916020019190600101906113d9565b5b5090506114029190611420565b5090565b604051806040016040528060608152602001606081525090565b5b80821115611439576000816000905550600101611421565b5090565b6000604051905090565b600080fd5b600080fd5b600080fd5b600080fd5b6000601f19601f8301169050919050565b7f4e487b7100000000000000000000000000000000000000000000000000000000600052604160045260246000fd5b6114a48261145b565b810181811067ffffffffffffffff821117156114c3576114c261146c565b5b80604052505050565b60006114d661143d565b90506114e2828261149b565b919050565b600067ffffffffffffffff8211156115025761150161146c565b5b61150b8261145b565b9050602081019050919050565b82818337600083830152505050565b600061153a611535846114e7565b6114cc565b90508281526020810184848401111561155657611555611456565b5b611561848285611518565b509392505050565b600082601f83011261157e5761157d611451565b5b813561158e848260208601611527565b91505092915050565b6000602082840312156115ad576115ac611447565b5b600082013567ffffffffffffffff8111156115cb576115ca61144c565b5b6115d784828501611569565b91505092915050565b600067ffffffffffffffff8211156115fb576115fa61146c565b5b6116048261145b565b9050602081019050919050565b600061162461161f846115e0565b6114cc565b9050828152602081018484840111156116405761163f611456565b5b61164b848285611518565b509392505050565b600082601f83011261166857611667611451565b5b8135611678848260208601611611565b91505092915050565b6000806040838503121561169857611697611447565b5b600083013567ffffffffffffffff8111156116b6576116b561144c565b5b6116c285828601611569565b925050602083013567ffffffffffffffff8111156116e3576116e261144c565b5b6116ef85828601611653565b9150509250929050565b6000819050919050565b61170c816116f9565b811461171757600080fd5b50565b60008135905061172981611703565b92915050565b60006020828403121561174557611744611447565b5b60006117538482850161171a565b91505092915050565b600081519050919050565b600082825260208201905092915050565b60005b8381101561179657808201518184015260208101905061177b565b838111156117a5576000848401525b50505050565b60006117b68261175c565b6117c08185611767565b93506117d0818560208601611778565b6117d98161145b565b840191505092915050565b600081519050919050565b600082825260208201905092915050565b600061180b826117e4565b61181581856117ef565b9350611825818560208601611778565b61182e8161145b565b840191505092915050565b6000604082019050818103600083015261185381856117ab565b905081810360208301526118678184611800565b90509392505050565b600081519050919050565b600082825260208201905092915050565b6000819050602082019050919050565b600082825260208201905092915050565b60006118b8826117e4565b6118c2818561189c565b93506118d2818560208601611778565b6118db8161145b565b840191505092915050565b600082825260208201905092915050565b60006119028261175c565b61190c81856118e6565b935061191c818560208601611778565b6119258161145b565b840191505092915050565b6000604083016000830151848203600086015261194d82826118ad565b9150506020830151848203602086015261196782826118f7565b9150508091505092915050565b60006119808383611930565b905092915050565b6000602082019050919050565b60006119a082611870565b6119aa818561187b565b9350836020820285016119bc8561188c565b8060005b858110156119f857848403895281516119d98582611974565b94506119e483611988565b925060208a019950506001810190506119c0565b50829750879550505050505092915050565b60006020820190508181036000830152611a248184611995565b905092915050565b60006020820190508181036000830152611a468184611800565b905092915050565b60006060820190508181036000830152611a6881866117ab565b90508181036020830152611a7c8185611800565b90508181036040830152611a9081846117ab565b9050949350505050565b60008060008060808587031215611ab457611ab3611447565b5b600085013567ffffffffffffffff811115611ad257611ad161144c565b5b611ade87828801611569565b945050602085013567ffffffffffffffff811115611aff57611afe61144c565b5b611b0b87828801611569565b935050604085013567ffffffffffffffff811115611b2c57611b2b61144c565b5b611b3887828801611653565b925050606085013567ffffffffffffffff811115611b5957611b5861144c565b5b611b6587828801611569565b91505092959194509250565b600081905092915050565b6000611b878261175c565b611b918185611b71565b9350611ba1818560208601611778565b80840191505092915050565b6000611bb98284611b7c565b915081905092915050565b7f4e487b7100000000000000000000000000000000000000000000000000000000600052602260045260246000fd5b60006002820490506001821680611c0b57607f821691505b60208210811415611c1f57611c1e611bc4565b5b50919050565b7f5468697320646f63756d656e7420646f6573206e6f7420657869737400000000600082015250565b6000611c5b601c83611767565b9150611c6682611c25565b602082019050919050565b60006020820190508181036000830152611c8a81611c4e565b9050919050565b7f4e487b7100000000000000000000000000000000000000000000000000000000600052603260045260246000fd5b60008190508160005260206000209050919050565b60008154611ce281611bf3565b611cec8186611b71565b94506001821660008114611d075760018114611d1857611d4b565b60ff19831686528186019350611d4b565b611d2185611cc0565b60005b83811015611d4357815481890152600182019150602081019050611d24565b838801955050505b50505092915050565b6000611d608284611cd5565b915081905092915050565b7f4e487b7100000000000000000000000000000000000000000000000000000000600052601160045260246000fd5b6000611da5826116f9565b91507fffffffffffffffffffffffffffffffffffffffffffffffffffffffffffffffff821415611dd857611dd7611d6b565b5b600182019050919050565b7f5468697320646f63756d656e74206973206e6f74206f726967696e616c000000600082015250565b6000611e19601d83611767565b9150611e2482611de3565b602082019050919050565b60006020820190508181036000830152611e4881611e0c565b905091905056fea264697066735822122047f3d46d529ed2bc17a21a2c01ddd74a5a380e63c558fa38afad5a12f42f42fa64736f6c63430008090033",
  "immutableReferences": {},
  "source": "// SPDX-License-Identifier: UNLICENSED\npragma solidity ^0.8.9;\n\n/// @title A contract to issue/get/revoke documents to anyone\n/// @author g-s01\n/// @notice A contract to issue/get/revoke documents to anyone\n/// @dev Verification of the document is not implemented, and will be done somewhere else\ncontract Record{\n    // A document can be uniquely identified by the recipient's email,\n    // the hash of the document on IPFS\n    // and the email of the organization that issued the document\n    struct Document{\n        string recipientEmail;\n        bytes ipfsHashSigned;\n        string orgEmail;\n    }\n    struct emailAndDocumentHashAndOrgEmail{\n        string email;\n        bytes documentHash;\n        string orgEmail;\n    }\n    struct emailAndPublicKey{\n        string email;\n        bytes publicKey;\n    }\n    // TODO: Comment THIS in the final doc\n    struct emailAndPrivateKey{\n        string email;\n        bytes privateKey;\n    }\n    struct DocumentHashAndOrgEmail{\n        bytes documentHash;\n        string orgEmail;\n    }\n    emailAndPublicKey[] public emailAndPublicKeys;\n    emailAndPrivateKey[] public emailAndPrivateKeys;\n    emailAndDocumentHashAndOrgEmail[] public emailAndDocumentHashAndOrgEmails;\n    // A mapping from the document ID to the document\n    mapping(string => Document) public documents;\n    // An event that is emitted when a document is issued\n    event documentIssued(string recipientEmail, bytes ipfsHashSigned, string orgEmail);\n    // Modifier to check whether the certificate is original or not\n    modifier isOriginal(string memory documentId){\n        require(\n            bytes(documents[documentId].ipfsHashSigned).length == 0,\n            \"This document is not original\"\n        );\n        _;\n    }\n    // Modifier to check whether the certificate exists or not\n    modifier isExist(string memory documentId){\n        require(\n            bytes(documents[documentId].ipfsHashSigned).length != 0,\n            \"This document does not exist\"\n        );\n        _;\n    }\n    // A function to issue a document\n    function issueDocument(\n        string memory documentId,\n        string memory recipientEmail,\n        bytes memory ipfsHashSigned,\n        string memory orgEmail\n    ) public isOriginal (documentId){\n        Document memory newDocument = Document(\n            recipientEmail,\n            ipfsHashSigned,\n            orgEmail\n        );\n        documents[documentId] = newDocument;\n        emailAndDocumentHashAndOrgEmails.push(emailAndDocumentHashAndOrgEmail(recipientEmail, ipfsHashSigned, orgEmail));\n        emit documentIssued(recipientEmail, ipfsHashSigned, orgEmail);\n    }\n    // A function to get certificates for a particular email\n    function getDocument(string memory email)\n        public\n        view\n        returns (DocumentHashAndOrgEmail[] memory)\n    {\n        uint256 count = 0;\n        for (uint256 i = 0; i < emailAndDocumentHashAndOrgEmails.length; i++) {\n            if (keccak256(abi.encodePacked(emailAndDocumentHashAndOrgEmails[i].email)) == keccak256(abi.encodePacked(email))) {\n                count++;\n            }\n        }\n        DocumentHashAndOrgEmail[] memory documentIds = new DocumentHashAndOrgEmail[](count);\n        uint256 j = 0;\n        for (uint256 i = 0; i < emailAndDocumentHashAndOrgEmails.length; i++) {\n            if (keccak256(abi.encodePacked(emailAndDocumentHashAndOrgEmails[i].email)) == keccak256(abi.encodePacked(email))) {\n                documentIds[j] = DocumentHashAndOrgEmail(emailAndDocumentHashAndOrgEmails[i].documentHash, emailAndDocumentHashAndOrgEmails[i].orgEmail);\n                j++;\n            }\n        }\n        return documentIds;\n    }\n    // A function to revoke a document\n    function revokeDocument(string memory documentId) public isExist(documentId){\n        delete documents[documentId];\n    }\n    // A function to store email and public key\n    function storeEmailAndPublicKey(string memory email, bytes memory publicKey) public {\n        emailAndPublicKeys.push(emailAndPublicKey(email, publicKey));\n    }\n    // A function to retrieve public key from email\n    function getPublicKey(string memory email) public view returns (bytes memory){\n        for (uint256 i = 0; i < emailAndPublicKeys.length; i++) {\n            if (keccak256(abi.encodePacked(emailAndPublicKeys[i].email)) == keccak256(abi.encodePacked(email))) {\n                return emailAndPublicKeys[i].publicKey;\n            }\n        }\n        return \"\";\n    }\n    // A function to store email and private key\n    function storeEmailAndPrivateKey(string memory email, bytes memory privateKey) public {\n        emailAndPrivateKeys.push(emailAndPrivateKey(email, privateKey));\n    }\n    // A function to retrieve private key from email\n    function getPrivateKey(string memory email) public view returns (bytes memory){\n        for (uint256 i = 0; i < emailAndPrivateKeys.length; i++) {\n            if (keccak256(abi.encodePacked(emailAndPrivateKeys[i].email)) == keccak256(abi.encodePacked(email))) {\n                return emailAndPrivateKeys[i].privateKey;\n            }\n        }\n        return \"\";\n    }\n}",
  "sourcePath": "/Users/gautamsharma/Desktop/DCert-backend/contracts/document.sol",
  "compiler": {
    "name": "solc",
    "version": "0.8.9+commit.e5eed63a.Emscripten.clang"
  },
  "schemaVersion": "3.4.16",
  "updatedAt": "2024-02-09T01:00:57.221Z",
  "networkType": "ethereum",
  "devdoc": {
    "author": "g-s01",
    "details": "Verification of the document is not implemented, and will be done somewhere else",
    "kind": "dev",
    "methods": {},
    "title": "A contract to issue/get/revoke documents to anyone",
    "version": 1
  },
  "userdoc": {
    "kind": "user",
    "methods": {},
    "notice": "A contract to issue/get/revoke documents to anyone",
    "version": 1
  }
}